{
  "contractName": "DVSRegistry",
  "abi": [
    {
      "inputs": [],
      "payable": false,
      "stateMutability": "nonpayable",
      "type": "constructor"
    },
    {
      "anonymous": false,
      "inputs": [
        {
          "indexed": true,
          "internalType": "address",
          "name": "from",
          "type": "address"
        },
        {
          "indexed": false,
          "internalType": "string",
          "name": "docId",
          "type": "string"
        },
        {
          "indexed": false,
          "internalType": "address[]",
          "name": "authorized",
          "type": "address[]"
        }
      ],
      "name": "ChangeAuthorized",
      "type": "event"
    },
    {
      "anonymous": false,
      "inputs": [
        {
          "indexed": true,
          "internalType": "address",
          "name": "from",
          "type": "address"
        },
        {
          "indexed": false,
          "internalType": "string",
          "name": "docId",
          "type": "string"
        },
        {
          "indexed": false,
          "internalType": "uint256",
          "name": "fee",
          "type": "uint256"
        }
      ],
      "name": "ChangeFee",
      "type": "event"
    },
    {
      "anonymous": false,
      "inputs": [
        {
          "indexed": true,
          "internalType": "address",
          "name": "from",
          "type": "address"
        },
        {
          "indexed": false,
          "internalType": "string",
          "name": "docId",
          "type": "string"
        },
        {
          "indexed": false,
          "internalType": "string",
          "name": "key",
          "type": "string"
        },
        {
          "indexed": false,
          "internalType": "uint256",
          "name": "fee",
          "type": "uint256"
        },
        {
          "indexed": false,
          "internalType": "address[]",
          "name": "authorized",
          "type": "address[]"
        }
      ],
      "name": "Register",
      "type": "event"
    },
    {
      "anonymous": false,
      "inputs": [
        {
          "indexed": true,
          "internalType": "address",
          "name": "from",
          "type": "address"
        },
        {
          "indexed": false,
          "internalType": "string",
          "name": "docId",
          "type": "string"
        },
        {
          "indexed": false,
          "internalType": "uint256",
          "name": "amount",
          "type": "uint256"
        }
      ],
      "name": "Subscribe",
      "type": "event"
    },
    {
      "anonymous": false,
      "inputs": [
        {
          "indexed": true,
          "internalType": "address",
          "name": "from",
          "type": "address"
        },
        {
          "indexed": true,
          "internalType": "address",
          "name": "to",
          "type": "address"
        },
        {
          "indexed": false,
          "internalType": "uint256",
          "name": "amount",
          "type": "uint256"
        }
      ],
      "name": "Withdraw",
      "type": "event"
    },
    {
      "constant": true,
      "inputs": [],
      "name": "PUBLIC_KEY",
      "outputs": [
        {
          "internalType": "string",
          "name": "",
          "type": "string"
        }
      ],
      "payable": false,
      "stateMutability": "view",
      "type": "function"
    },
    {
      "constant": true,
      "inputs": [],
      "name": "message",
      "outputs": [
        {
          "internalType": "string",
          "name": "",
          "type": "string"
        }
      ],
      "payable": false,
      "stateMutability": "view",
      "type": "function"
    },
    {
      "constant": true,
      "inputs": [],
      "name": "owner",
      "outputs": [
        {
          "internalType": "address",
          "name": "",
          "type": "address"
        }
      ],
      "payable": false,
      "stateMutability": "view",
      "type": "function"
    },
    {
      "constant": false,
      "inputs": [
        {
          "internalType": "string",
          "name": "newMessage",
          "type": "string"
        }
      ],
      "name": "setMessage",
      "outputs": [],
      "payable": false,
      "stateMutability": "nonpayable",
      "type": "function"
    },
    {
      "constant": true,
      "inputs": [
        {
          "internalType": "string",
          "name": "docId",
          "type": "string"
        }
      ],
      "name": "docExists",
      "outputs": [
        {
          "internalType": "bool",
          "name": "",
          "type": "bool"
        }
      ],
      "payable": false,
      "stateMutability": "view",
      "type": "function"
    },
    {
      "constant": false,
      "inputs": [
        {
          "internalType": "string",
          "name": "docId",
          "type": "string"
        },
        {
          "internalType": "string",
          "name": "encryptedKey",
          "type": "string"
        },
        {
          "internalType": "uint256",
          "name": "subscriptionFee",
          "type": "uint256"
        },
        {
          "internalType": "address[]",
          "name": "authorizedAddresses",
          "type": "address[]"
        }
      ],
      "name": "registerDoc",
      "outputs": [],
      "payable": false,
      "stateMutability": "nonpayable",
      "type": "function"
    },
    {
      "constant": true,
      "inputs": [
        {
          "internalType": "string",
          "name": "docId",
          "type": "string"
        }
      ],
      "name": "getDocumentKey",
      "outputs": [
        {
          "internalType": "string",
          "name": "",
          "type": "string"
        }
      ],
      "payable": false,
      "stateMutability": "view",
      "type": "function"
    },
    {
      "constant": true,
      "inputs": [
        {
          "internalType": "string",
          "name": "docId",
          "type": "string"
        }
      ],
      "name": "getSubscriptionFee",
      "outputs": [
        {
          "internalType": "uint256",
          "name": "fee",
          "type": "uint256"
        }
      ],
      "payable": false,
      "stateMutability": "view",
      "type": "function"
    },
    {
      "constant": false,
      "inputs": [
        {
          "internalType": "string",
          "name": "docId",
          "type": "string"
        },
        {
          "internalType": "uint256",
          "name": "subscriptionFee",
          "type": "uint256"
        }
      ],
      "name": "setSubscriptionFee",
      "outputs": [],
      "payable": false,
      "stateMutability": "nonpayable",
      "type": "function"
    },
    {
      "constant": true,
      "inputs": [
        {
          "internalType": "string",
          "name": "docId",
          "type": "string"
        }
      ],
      "name": "getAuthor",
      "outputs": [
        {
          "internalType": "address",
          "name": "",
          "type": "address"
        }
      ],
      "payable": false,
      "stateMutability": "view",
      "type": "function"
    },
    {
      "constant": true,
      "inputs": [
        {
          "internalType": "string",
          "name": "docId",
          "type": "string"
        }
      ],
      "name": "getAuthorizedAccounts",
      "outputs": [
        {
          "internalType": "address[]",
          "name": "",
          "type": "address[]"
        }
      ],
      "payable": false,
      "stateMutability": "view",
      "type": "function"
    },
    {
      "constant": false,
      "inputs": [
        {
          "internalType": "string",
          "name": "docId",
          "type": "string"
        },
        {
          "internalType": "address[]",
          "name": "authorizedAddresses",
          "type": "address[]"
        },
        {
          "internalType": "address[]",
          "name": "deniedAddresses",
          "type": "address[]"
        }
      ],
      "name": "setAccess",
      "outputs": [],
      "payable": false,
      "stateMutability": "nonpayable",
      "type": "function"
    },
    {
      "constant": false,
      "inputs": [
        {
          "internalType": "string",
          "name": "docId",
          "type": "string"
        }
      ],
      "name": "subscribe",
      "outputs": [],
      "payable": true,
      "stateMutability": "payable",
      "type": "function"
    },
    {
      "constant": false,
      "inputs": [
        {
          "internalType": "uint256",
          "name": "amount",
          "type": "uint256"
        },
        {
          "internalType": "address payable",
          "name": "to",
          "type": "address"
        }
      ],
      "name": "withdraw",
      "outputs": [],
      "payable": false,
      "stateMutability": "nonpayable",
      "type": "function"
    }
  ],
  "bytecode": "0x60c0604052600b60808190527f48656c6c6f20576f726c6400000000000000000000000000000000000000000060a090815262000040916000919062000067565b503480156200004e57600080fd5b50600180546001600160a01b031916331790556200010c565b828054600181600116156101000203166002900490600052602060002090601f016020900481019282601f10620000aa57805160ff1916838001178555620000da565b82800160010185558215620000da579182015b82811115620000da578251825591602001919060010190620000bd565b50620000e8929150620000ec565b5090565b6200010991905b80821115620000e85760008155600101620000f3565b90565b612138806200011c6000396000f3fe6080604052600436106100dc5760003560e01c80638da5cb5b1161007f578063c6ee72bf11610059578063c6ee72bf14610705578063cf7e751f146107d0578063dd34a2cf1461085d578063e21f37ce14610922576100dc565b80638da5cb5b146104c05780639aebd2a1146104d55780639ffb50a11461068a576100dc565b8063350d94d4116100bb578063350d94d4146102c5578063368b87721461035c578063507e7888146103d7578063749b661b14610445576100dc565b8062f714ce146100e1578063030db4451461011c5780632bbabba5146101a6575b600080fd5b3480156100ed57600080fd5b5061011a6004803603604081101561010457600080fd5b50803590602001356001600160a01b0316610937565b005b34801561012857600080fd5b50610131610a3b565b6040805160208082528351818301528351919283929083019185019080838360005b8381101561016b578181015183820152602001610153565b50505050905090810190601f1680156101985780820380516001836020036101000a031916815260200191505b509250505060405180910390f35b3480156101b257600080fd5b5061011a600480360360808110156101c957600080fd5b810190602081018135600160201b8111156101e357600080fd5b8201836020820111156101f557600080fd5b803590602001918460018302840111600160201b8311171561021657600080fd5b919390929091602081019035600160201b81111561023357600080fd5b82018360208201111561024557600080fd5b803590602001918460018302840111600160201b8311171561026657600080fd5b91939092823592604081019060200135600160201b81111561028757600080fd5b82018360208201111561029957600080fd5b803590602001918460208302840111600160201b831117156102ba57600080fd5b509092509050610a74565b3480156102d157600080fd5b50610340600480360360208110156102e857600080fd5b810190602081018135600160201b81111561030257600080fd5b82018360208201111561031457600080fd5b803590602001918460018302840111600160201b8311171561033557600080fd5b509092509050610e11565b604080516001600160a01b039092168252519081900360200190f35b34801561036857600080fd5b5061011a6004803603602081101561037f57600080fd5b810190602081018135600160201b81111561039957600080fd5b8201836020820111156103ab57600080fd5b803590602001918460018302840111600160201b831117156103cc57600080fd5b509092509050610ec6565b61011a600480360360208110156103ed57600080fd5b810190602081018135600160201b81111561040757600080fd5b82018360208201111561041957600080fd5b803590602001918460018302840111600160201b8311171561043a57600080fd5b509092509050610ed7565b34801561045157600080fd5b5061011a6004803603604081101561046857600080fd5b810190602081018135600160201b81111561048257600080fd5b82018360208201111561049457600080fd5b803590602001918460018302840111600160201b831117156104b557600080fd5b91935091503561116b565b3480156104cc57600080fd5b5061034061131a565b3480156104e157600080fd5b5061011a600480360360608110156104f857600080fd5b810190602081018135600160201b81111561051257600080fd5b82018360208201111561052457600080fd5b803590602001918460018302840111600160201b8311171561054557600080fd5b91908080601f0160208091040260200160405190810160405280939291908181526020018383808284376000920191909152509295949360208101935035915050600160201b81111561059757600080fd5b8201836020820111156105a957600080fd5b803590602001918460208302840111600160201b831117156105ca57600080fd5b9190808060200260200160405190810160405280939291908181526020018383602002808284376000920191909152509295949360208101935035915050600160201b81111561061957600080fd5b82018360208201111561062b57600080fd5b803590602001918460208302840111600160201b8311171561064c57600080fd5b91908080602002602001604051908101604052809392919081815260200183836020028082843760009201919091525092955061132a945050505050565b34801561069657600080fd5b50610131600480360360208110156106ad57600080fd5b810190602081018135600160201b8111156106c757600080fd5b8201836020820111156106d957600080fd5b803590602001918460018302840111600160201b831117156106fa57600080fd5b50909250905061169e565b34801561071157600080fd5b506107806004803603602081101561072857600080fd5b810190602081018135600160201b81111561074257600080fd5b82018360208201111561075457600080fd5b803590602001918460018302840111600160201b8311171561077557600080fd5b5090925090506118cf565b60408051602080825283518183015283519192839290830191858101910280838360005b838110156107bc5781810151838201526020016107a4565b505050509050019250505060405180910390f35b3480156107dc57600080fd5b5061084b600480360360208110156107f357600080fd5b810190602081018135600160201b81111561080d57600080fd5b82018360208201111561081f57600080fd5b803590602001918460018302840111600160201b8311171561084057600080fd5b5090925090506119cb565b60408051918252519081900360200190f35b34801561086957600080fd5b5061090e6004803603602081101561088057600080fd5b810190602081018135600160201b81111561089a57600080fd5b8201836020820111156108ac57600080fd5b803590602001918460018302840111600160201b831117156108cd57600080fd5b91908080601f016020809104026020016040519081016040528093929190818152602001838380828437600092019190915250929550611a76945050505050565b604080519115158252519081900360200190f35b34801561092e57600080fd5b50610131611aeb565b6001546001600160a01b031633146109805760405162461bcd60e51b815260040180806020018281038252602881526020018061202c6028913960400191505060405180910390fd5b30318211156109c05760405162461bcd60e51b8152600401808060200182810382526034815260200180611fc96034913960400191505060405180910390fd5b6040516001600160a01b0382169083156108fc029084906000818181858888f193505050501580156109f6573d6000803e3d6000fd5b506040805183815290516001600160a01b0383169133917f9b1bfa7fa9ee420a16e124f794c35ac9f90472acc99140eb2f6447c714cad8eb9181900360200190a35050565b6040518060400160405280601d81526020017f30303030302d30303030302d30303030302d30303030302d303030303000000081525081565b610ab387878080601f016020809104026020016040519081016040528093929190818152602001838380828437600092019190915250611a7692505050565b15610aef5760405162461bcd60e51b81526004018080602001828103825260268152602001806120de6026913960400191505060405180910390fd5b60003390508060028989604051808383808284378083019250505092505050908152602001604051809103902060006101000a8154816001600160a01b0302191690836001600160a01b03160217905550858560038a8a60405180838380828437808301925050509250505090815260200160405180910390209190610b76929190611ead565b50836006898960405180838380828437919091019485525050604051928390036020019092209290925550600090505b82811015610c26576000848483818110610bbc57fe5b905060200201356001600160a01b03169050600160048b8b6040518083838082843791909101948552505060408051602094819003850190206001600160a01b03969096166000908152959093525050909120805460ff1916911515919091179055600101610ba6565b50828260058a8a60405180838380828437808301925050509250505090815260200160405180910390209190610c5d929190611f2b565b50336001600160a01b03167fcf92c0af1412baa9e061faf28dfbcfeec3841ef9c2ad32f08faae31330fb9375898960038c8c604051808383808284378083019250505092505050908152602001604051809103902060068d8d60405180838380828437808301925050509250505090815260200160405180910390205460058e8e60405180838380828437919091019485525050604080519384900360209081018520918501869052608080865285018890529093925082915081016060820160a08301898980828437600083820152601f01601f191690910185810384528854600260001961010060018416150201909116048082526020909101915088908015610daa5780601f10610d7f57610100808354040283529160200191610daa565b820191906000526020600020905b815481529060010190602001808311610d8d57829003601f168201915b50508481038252858181548152602001915080548015610df357602002820191906000526020600020905b81546001600160a01b03168152600190910190602001808311610dd5575b50509850505050505050505060405180910390a25050505050505050565b6000610e5283838080601f016020809104026020016040519081016040528093929190818152602001838380828437600092019190915250611a7692505050565b610e8d5760405162461bcd60e51b81526004018080602001828103825260258152602001806120546025913960400191505060405180910390fd5b600283836040518083838082843791909101948552505060405192839003602001909220546001600160a01b0316925050505b92915050565b610ed260008383611ead565b505050565b60028282604051808383808284379190910194855250506040519283900360200190922054336001600160a01b0390911614801592509050610f4d57506004828260405180838380828437919091019485525050604080516020948190038501902033600090815294529092205460ff16159150505b610f885760405162461bcd60e51b815260040180806020018281038252602f815260200180611ffd602f913960400191505060405180910390fd5b60068282604051808383808284378083019250505092505050908152602001604051809103902054341015610fee5760405162461bcd60e51b815260040180806020018281038252602c8152602001806120b2602c913960400191505060405180910390fd5b60006002838360405180838380828437919091019485525050604051928390036020018320546001600160a01b0316935083926108fc92506006915086908690808383808284379190910194855250506040519283900360200183205480159094029392915060009050818181858888f19350505050158015611075573d6000803e3d6000fd5b50600160048484604051808383808284379190910194855250506040805160209481900385018120336000908152908652829020805460ff191696151596909617909555601f8701849004840285018401905250508382526110f491908590859081908401838280828437600092019190915250339250611b79915050565b336001600160a01b03167fb2c1a860b7618079531666a12a66f643ad0c88aadd23c9d1964d2146813539b284843460405180806020018381526020018281038252858582818152602001925080828437600083820152604051601f909101601f1916909201829003965090945050505050a2505050565b6111aa83838080601f016020809104026020016040519081016040528093929190818152602001838380828437600092019190915250611a7692505050565b6111e55760405162461bcd60e51b81526004018080602001828103825260258152602001806120546025913960400191505060405180910390fd5b60028383604051808383808284379190910194855250506040519283900360200190922054336001600160a01b0390911614915061125690505760405162461bcd60e51b81526004018080602001828103825260398152602001806120796039913960400191505060405180910390fd5b8060068484604051808383808284378083019250505092505050908152602001604051809103902081905550336001600160a01b03167f995c2f50a2357ccc0ad2d6fc17e45e986e6b92f4ecc6fb5f633bd7fea7c3a17b84846006878760405180838380828437919091019485525050604080516020948190038501812054948101859052818152908101859052915081905060608101858580828437600083820152604051601f909101601f1916909201829003965090945050505050a2505050565b6001546001600160a01b03165b90565b6002836040518082805190602001908083835b6020831061135c5780518252601f19909201916020918201910161133d565b51815160209384036101000a60001901801990921691161790529201948552506040519384900301909220546001600160a01b0316331491506113d290505760405162461bcd60e51b81526004018080602001828103825260398152602001806120796039913960400191505060405180910390fd5b60005b82518110156114925760008382815181106113ec57fe5b6020026020010151905060016004866040518082805190602001908083835b6020831061142a5780518252601f19909201916020918201910161140b565b51815160209384036101000a6000190180199092169116179052920194855250604080519485900382019094206001600160a01b0387166000908152915292909220805460ff1916931515939093179092555061148990508582611b79565b506001016113d5565b5060005b81518110156115495760008282815181106114ad57fe5b602002602001015190506004856040518082805190602001908083835b602083106114e95780518252601f1990920191602091820191016114ca565b51815160209384036101000a6000190180199092169116179052920194855250604080519485900382019094206001600160a01b0386166000908152915292909220805460ff191690555061154090508582611c67565b50600101611496565b50336001600160a01b03167f4529acb53914524bf180c507c1eb8eeb81367eb035e966ee8245cdfc55fdb091846005866040518082805190602001908083835b602083106115a85780518252601f199092019160209182019101611589565b51815160209384036101000a60001901801990921691161790529201948552506040805194859003820185208186528651918601919091528551909493508392508282019160608401919087019080838360005b838110156116145781810151838201526020016115fc565b50505050905090810190601f1680156116415780820380516001836020036101000a031916815260200191505b50838103825284818154815260200191508054801561168957602002820191906000526020600020905b81546001600160a01b0316815260019091019060200180831161166b575b505094505050505060405180910390a2505050565b606060028383604051808383808284379190910194855250506040519283900360200190922054336001600160a01b0390911614915081905061171457506004838360405180838380828437919091019485525050604080516020948190038501902033600090815294529092205460ff169150505b80611803575061180360038484604051808383808284379190910194855250506040805160209481900385018120805460026001821615610100026000190190911604601f810187900487028301870190935282825290949093509091508301828280156117c35780601f10611798576101008083540402835291602001916117c3565b820191906000526020600020905b8154815290600101906020018083116117a657829003601f168201915b50505050506040518060400160405280601d81526020017f30303030302d30303030302d30303030302d30303030302d3030303030000000815250611dc6565b156118ba5760038383604051808383808284379190910194855250506040805160209481900385018120805460026001821615610100026000190190911604601f810187900487028301870190935282825290949093509091508301828280156118ae5780601f10611883576101008083540402835291602001916118ae565b820191906000526020600020905b81548152906001019060200180831161189157829003601f168201915b50505050509050610ec0565b50604080516020810190915260008152610ec0565b606061191083838080601f016020809104026020016040519081016040528093929190818152602001838380828437600092019190915250611a7692505050565b61194b5760405162461bcd60e51b81526004018080602001828103825260258152602001806120546025913960400191505060405180910390fd5b600583836040518083838082843791909101948552505060408051938490036020908101852080548083028701830190935282865293509091508301828280156119be57602002820191906000526020600020905b81546001600160a01b031681526001909101906020018083116119a0575b5050505050905092915050565b6000611a0c83838080601f016020809104026020016040519081016040528093929190818152602001838380828437600092019190915250611a7692505050565b611a475760405162461bcd60e51b81526004018080602001828103825260258152602001806120546025913960400191505060405180910390fd5b600683836040518083838082843791909101948552505060405192839003602001909220549250505092915050565b6000806002836040518082805190602001908083835b60208310611aab5780518252601f199092019160209182019101611a8c565b51815160209384036101000a60001901801990921691161790529201948552506040519384900301909220546001600160a01b0316151595945050505050565b6000805460408051602060026001851615610100026000190190941693909304601f81018490048402820184019092528181529291830182828015611b715780601f10611b4657610100808354040283529160200191611b71565b820191906000526020600020905b815481529060010190602001808311611b5457829003601f168201915b505050505081565b60006005836040518082805190602001908083835b60208310611bad5780518252601f199092019160209182019101611b8e565b51815160209384036101000a60001901801990921691161790529201948552506040519384900301909220925060009150505b815463ffffffff82161015611c3557826001600160a01b0316828263ffffffff1681548110611c0b57fe5b6000918252602090912001546001600160a01b03161415611c2d575050611c63565b600101611be0565b508054600181018255600091825260209091200180546001600160a01b0319166001600160a01b0383161790555b5050565b60006005836040518082805190602001908083835b60208310611c9b5780518252601f199092019160209182019101611c7c565b51815160209384036101000a60001901801990921691161790529201948552506040519384900301909220925060009150505b815463ffffffff82161015611dc057826001600160a01b0316828263ffffffff1681548110611cf957fe5b6000918252602090912001546001600160a01b03161415611db857815482906000198101908110611d2657fe5b9060005260206000200160009054906101000a90046001600160a01b0316828263ffffffff1681548110611d5657fe5b9060005260206000200160006101000a8154816001600160a01b0302191690836001600160a01b0316021790555081805480611d8e57fe5b600082815260209020810160001990810180546001600160a01b031916905501905550611c639050565b600101611cce565b50505050565b6000816040516020018082805190602001908083835b60208310611dfb5780518252601f199092019160209182019101611ddc565b6001836020036101000a03801982511681845116808217855250505050505090500191505060405160208183030381529060405280519060200120836040516020018082805190602001908083835b60208310611e695780518252601f199092019160209182019101611e4a565b6001836020036101000a0380198251168184511680821785525050505050509050019150506040516020818303038152906040528051906020012014905092915050565b828054600181600116156101000203166002900490600052602060002090601f016020900481019282601f10611eee5782800160ff19823516178555611f1b565b82800160010185558215611f1b579182015b82811115611f1b578235825591602001919060010190611f00565b50611f27929150611f8a565b5090565b828054828255906000526020600020908101928215611f7e579160200282015b82811115611f7e5781546001600160a01b0319166001600160a01b03843516178255602090920191600190910190611f4b565b50611f27929150611fa4565b61132791905b80821115611f275760008155600101611f90565b61132791905b80821115611f275780546001600160a01b0319168155600101611faa56fe72657175657374656420616d6f756e7420746f6f206869676820636f6d706172656420746f2061637475616c2062616c616e63656163636f756e742068617320616c7265616479207375627363726962656420746f207468697320646f63756d656e746f6e6c7920636f6e7472616374206f776e65722063616e2063616c6c2074686973206d6574686f647468697320646f63756d656e7420686173206e6f74206265656e20726567697374657265646f6e6c792074686520617574686f72206f662074686520646f63756d656e742063616e206368616e676520617574686f7269736174696f6e736e6f7420656e6f7567682066656520746f2073756273637269626520746f207468697320646f63756d656e746120646f63756d656e742077697468207468697320696420616c726561647920657869737473a265627a7a72315820e3818b51c0f31669bcb5fa08909f5e25b9f91a3614fc002428c43bef21def1bc64736f6c63430005100032",
  "source": "pragma solidity >=0.5.13 <0.7.0;\r\n\r\ncontract AddressList {\r\n    mapping(address => bool) public _addressMap;\r\n\r\n    function setWallet(address account) public {\r\n        _addressMap[account] = true;\r\n    }\r\n\r\n    function contains(address account) public view returns (bool) {\r\n        return _addressMap[account];\r\n    }\r\n}\r\ncontract DVSRegistry {\r\n    string public message = \"Hello World\";\r\n    address private _owner;\r\n    string public constant PUBLIC_KEY = '00000-00000-00000-00000-00000';\r\n\r\n    modifier onlyOwner() {\r\n        require(\r\n            msg.sender == _owner,\r\n            \"only contract owner can call this method\"\r\n        );\r\n        _;\r\n    }\r\n\r\n    mapping(string => address) private _authorPerDocId;\r\n    mapping(string => string) private _encryptedKeyPerDocId;\r\n    mapping(string => mapping(address => bool)) private _authorizedAddressPerDocId;\r\n    mapping(string => address[]) private _authorizedAddressArrayPerDocId;\r\n    mapping(string => uint256) private _subscriptionFeePerDocId;\r\n\r\n    event Register(\r\n      address indexed from,\r\n      string docId,\r\n      string key,\r\n      uint256 fee,\r\n      address[] authorized\r\n    );\r\n\r\n    event Subscribe(\r\n      address indexed from,\r\n      string docId,\r\n      uint256 amount\r\n    );\r\n\r\n    event Withdraw(\r\n      address indexed from,\r\n      address indexed to,\r\n      uint256 amount\r\n    );\r\n\r\n    event ChangeFee(\r\n      address indexed from,\r\n      string docId,\r\n      uint256 fee\r\n    );\r\n\r\n    event ChangeAuthorized(\r\n      address indexed from,\r\n      string docId,\r\n      address[] authorized\r\n    );\r\n\r\n    constructor() public {\r\n        _owner = msg.sender;\r\n    }\r\n\r\n    function owner() public view returns (address) {\r\n        return _owner;\r\n    }\r\n\r\n    function setMessage(string calldata newMessage) external {\r\n        message = newMessage;\r\n    }\r\n\r\n    function docExists(string memory docId) public view returns (bool) {\r\n        address author = _authorPerDocId[docId];\r\n        return author != address(0);\r\n    }\r\n\r\n    function compareStrings (string memory a, string memory b) internal view returns (bool) {\r\n      return (keccak256(abi.encodePacked((a))) == keccak256(abi.encodePacked((b))) );\r\n    }\r\n\r\n    function registerDoc(\r\n        string calldata docId,\r\n        string calldata encryptedKey,\r\n        uint256 subscriptionFee,\r\n        address[] calldata authorizedAddresses\r\n    ) external {\r\n        require(!docExists(docId), \"a document with this id already exists\");\r\n        address author = msg.sender;\r\n        _authorPerDocId[docId] = author;\r\n        _encryptedKeyPerDocId[docId] = encryptedKey;\r\n        _subscriptionFeePerDocId[docId] = subscriptionFee;\r\n        for (uint256 i = 0; i < authorizedAddresses.length; i++) {\r\n            address account = authorizedAddresses[i];\r\n            _authorizedAddressPerDocId[docId][account] = true;\r\n        }\r\n        _authorizedAddressArrayPerDocId[docId] = authorizedAddresses;\r\n        emit Register(\r\n          msg.sender,\r\n          docId,\r\n          _encryptedKeyPerDocId[docId],\r\n          _subscriptionFeePerDocId[docId],\r\n          _authorizedAddressArrayPerDocId[docId]\r\n        );\r\n    }\r\n\r\n    function getDocumentKey(string calldata docId)\r\n        external\r\n        view\r\n        returns (string memory)\r\n    {\r\n      if((msg.sender == _authorPerDocId[docId]) ||\r\n                _authorizedAddressPerDocId[docId][msg.sender] ||\r\n                compareStrings(_encryptedKeyPerDocId[docId], PUBLIC_KEY) ) {\r\n          return _encryptedKeyPerDocId[docId];\r\n        } else {\r\n          return '';\r\n        }\r\n    }\r\n\r\n    function getSubscriptionFee(string calldata docId) external view returns (uint256 fee) {\r\n      require(docExists(docId), \"this document has not been registered\");\r\n      return _subscriptionFeePerDocId[docId];\r\n    }\r\n\r\n    function setSubscriptionFee(string calldata docId, uint256 subscriptionFee) external  {\r\n      require(docExists(docId), \"this document has not been registered\");\r\n        require(\r\n            msg.sender == _authorPerDocId[docId],\r\n            \"only the author of the document can change authorisations\"\r\n        );\r\n      _subscriptionFeePerDocId[docId] = subscriptionFee;\r\n      emit ChangeFee(\r\n        msg.sender,\r\n        docId,\r\n        _subscriptionFeePerDocId[docId]\r\n      );\r\n    }\r\n\r\n    function getAuthor(string calldata docId) external view returns (address) {\r\n      require(docExists(docId), \"this document has not been registered\");\r\n      return _authorPerDocId[docId];\r\n    }\r\n\r\n    function getAuthorizedAccounts(string calldata docId) external view returns (address[] memory) {\r\n      require(docExists(docId), \"this document has not been registered\");\r\n      return _authorizedAddressArrayPerDocId[docId];\r\n    }\r\n\r\n    function setAccess(\r\n        string memory docId,\r\n        address[] memory authorizedAddresses,\r\n        address[] memory deniedAddresses\r\n    ) public {\r\n        require(\r\n            msg.sender == _authorPerDocId[docId],\r\n            \"only the author of the document can change authorisations\"\r\n        );\r\n        for (uint i = 0; i < authorizedAddresses.length; i++) {\r\n            address account = authorizedAddresses[i];\r\n            _authorizedAddressPerDocId[docId][account] = true;\r\n            addAccount(docId, account);\r\n        }\r\n        for (uint i = 0; i < deniedAddresses.length; i++) {\r\n            address account = deniedAddresses[i];\r\n            delete _authorizedAddressPerDocId[docId][account];\r\n            removeAccount(docId, account);\r\n        }\r\n        emit ChangeAuthorized(\r\n          msg.sender,\r\n          docId,\r\n          _authorizedAddressArrayPerDocId[docId]\r\n        );\r\n    }\r\n\r\n    function removeAccount(string memory docId, address account) private {\r\n      address[] storage addresses = _authorizedAddressArrayPerDocId[docId];\r\n      for (uint32 i = 0; i < addresses.length; i++) {\r\n        if (addresses[i] == account) {\r\n          // replace the current value with value (n-1)\r\n          addresses[i] = addresses[addresses.length - 1];\r\n          addresses.pop(); // remove the last item and reduce length by 1\r\n          return;\r\n        }\r\n      }\r\n    }\r\n\r\n    function addAccount(string memory docId, address account) private {\r\n      address[] storage addresses = _authorizedAddressArrayPerDocId[docId];\r\n      for (uint32 i = 0; i < addresses.length; i++) {\r\n        if (addresses[i] == account) {\r\n          // already in the array\r\n          return;\r\n        }\r\n      }\r\n      addresses.push(account); // add the account\r\n    }\r\n\r\n    function subscribe(string calldata docId) external payable {\r\n        require(\r\n            (msg.sender != _authorPerDocId[docId]) &&\r\n                !_authorizedAddressPerDocId[docId][msg.sender],\r\n            \"account has already subscribed to this document\"\r\n        );\r\n        require(\r\n            msg.value >= _subscriptionFeePerDocId[docId],\r\n            \"not enough fee to subscribe to this document\"\r\n        );\r\n        address payable author = address(uint160(_authorPerDocId[docId]));\r\n        author.transfer(_subscriptionFeePerDocId[docId]);\r\n        _authorizedAddressPerDocId[docId][msg.sender] = true;\r\n        addAccount(docId, msg.sender);\r\n        emit Subscribe(\r\n          msg.sender,\r\n          docId,\r\n          msg.value\r\n        );\r\n    }\r\n\r\n    function withdraw(uint256 amount, address payable to) external onlyOwner {\r\n        require(\r\n            amount <= address(this).balance,\r\n            \"requested amount too high compared to actual balance\"\r\n        );\r\n        to.transfer(amount);\r\n        emit Withdraw(\r\n          msg.sender,\r\n          to,\r\n          amount\r\n        );\r\n    }\r\n\r\n}\r\n",
  "sourcePath": "C:\\Users\\Ludo\\Documents\\Developpement\\ARWEAVE\\test-angular\\arweave-ng\\contracts\\DVSRegistry.sol",
  "compiler": {
    "name": "solc",
    "version": "0.5.16+commit.9c3226ce.Emscripten.clang"
  },
  "schemaVersion": "3.0.23",
  "updatedAt": "2020-03-26T17:11:59.083Z",
  "networkType": "ethereum",
  "devdoc": {
    "methods": {}
  },
  "userdoc": {
    "methods": {}
  }
}